:020000022000DC
:10600000C8220120E9F702002B900500BDF702002D
:10601000BDF70200BDF70200BDF70200000000005E
:106020000000000000000000000000000DF9020068
:10603000BDF702000000000079F80200BDF7020081
:106040002DFB0200194704002DFB02002DFB02006E
:106050002DFB02002DFB02002DFB02002DFB020098
:106060002DFB02002DFB02002DFB02002DFB020088
:106070002DFB02002DFB02002DFB02002DFB020078
:106080002DFB02002DFB02002DFB02002DFB020068
:106090002DFB02002DFB02002DFB02002DFB020058
:1060A0002DFB02002DFB02002DFB02002DFB020048
:1060B0002DFB02002DFB02002DFB02002DFB020038
:1060C0002DFB02002DFB02002DFB02002DFB020028
:1060D0002DFB02002DFB02002DFB02002DFB020018
:1060E0002DFB02002DFB02002DFB02002DFB020008
:1060F0002DFB02002DFB02002DFB02002DFB0200F8
:1061000081F0004102E000BF83F0004330B54FEA68
:1061100041044FEA430594EA050F08BF90EA020FD5
:106120001FBF54EA000C55EA020C7FEA645C7FEA68
:10613000655C00F0E2804FEA5454D4EB5555B8BF8B
:106140006D420CDD2C4480EA020281EA030382EAFC
:10615000000083EA010180EA020281EA0303362D8E
:1061600088BF30BD11F0004F4FEA01314FF4801C61
:106170004CEA113102D0404261EB410113F0004F73
:106180004FEA03334CEA133302D0524263EB43032A
:1061900094EA050F00F0A780A4F10104D5F1200EC8
:1061A0000DDB02FA0EFC22FA05F2801841F1000123
:1061B00003FA0EF2801843FA05F359410EE0A5F1F7
:1061C00020050EF1200E012A03FA0EFC28BF4CF028
:1061D000020C43FA05F3C01851EBE37101F00045DE
:1061E00007D54FF0000EDCF1000C7EEB00006EEBEB
:1061F0000101B1F5801F1BD3B1F5001F0CD3490875
:106200005FEA30004FEA3C0C04F101044FEA4452CB
:1062100012F5800F80F09A80BCF1004F08BF5FEA52
:10622000500C50F1000041EB045141EA050130BD32
:106230005FEA4C0C404141EB0101013C28BFB1F544
:10624000801FE9D291F0000F04BF01460020B1FA8F
:1062500081F308BF2033A3F10B03B3F120020CDA62
:106260000C3208DD02F1140CC2F10C0201FA0CF040
:1062700021FA02F10CE002F11402D8BFC2F1200CA5
:1062800001FA02F120FA0CFCDCBF41EA0C0190405B
:10629000E41AA2BF01EB0451294330BD6FEA0404A4
:1062A0001F3C1CDA0C340EDC04F11404C4F120028F
:1062B00020FA04F001FA02F340EA030021FA04F3A1
:1062C00045EA030130BDC4F10C04C4F1200220FAF8
:1062D00002F001FA04F340EA0300294630BD21FA36
:1062E00004F0294630BD94F0000F83F4801306BFFC
:1062F00081F480110134013D4EE77FEA645C18BFF0
:106300007FEA655C29D094EA050F08BF90EA020F86
:1063100005D054EA000C04BF1946104630BD91EA7E
:10632000030F1EBF0021002030BD5FEA545C05D181
:106330004000494128BF41F0004130BD14F58004C0
:106340003CBF01F5801130BD01F0004545F0FE4134
:1063500041F470014FF0000030BD7FEA645C1ABF69
:10636000194610467FEA655C1CBF0B46024650EAA0
:10637000013406BF52EA033591EA030F41F40021CC
:1063800030BD00BF90F0000F04BF0021704730B552
:106390004FF4806404F132044FF000054FF0000127
:1063A00050E700BF90F0000F04BF0021704730B5E8
:1063B0004FF4806404F1320410F0004548BF4042BD
:1063C0004FF000013EE700BF42004FEAE2014FEA12
:1063D00031014FEA02701FBF12F07F4393F07F4FED
:1063E00081F06051704732F07F4208BF704793F0F0
:1063F0007F4F04BF41F40021704730B54FF4607403
:1064000001F0004521F000411CE700BF50EA010205
:1064100008BF704730B54FF000050AE050EA0102AE
:1064200008BF704730B511F0004502D5404261EB1E
:1064300041014FF4806404F132045FEA915C3FF45F
:10644000D8AE4FF003025FEADC0C18BF03325FEAFC
:10645000DC0C18BF033202EBDC02C2F1200300FAAD
:1064600003FC20FA02F001FA03FE40EA0E0021FAD2
:1064700002F11444BDE600BF70B54FF0FF0C4CF4C0
:10648000E06C1CEA11541DBF1CEA135594EA0C0F72
:1064900095EA0C0F00F0DEF82C4481EA030621EAAD
:1064A0004C5123EA4C5350EA013518BF52EA0335E8
:1064B00041F4801143F4801338D0A0FB02CE4FF09A
:1064C0000005E1FB02E506F00042E0FB03E54FF0CA
:1064D0000006E1FB03569CF0000F18BF4EF0010EC2
:1064E000A4F1FF04B6F5007F64F5407404D25FEABE
:1064F0004E0E6D4146EB060642EAC62141EA555171
:106500004FEAC52040EA5E504FEACE2EB4F1FD0CB2
:1065100088BFBCF5E06F1ED8BEF1004F08BF5FEA30
:10652000500E50F1000041EB045170BD06F00046E2
:1065300046EA010140EA020081EA0301B4EB5C048F
:10654000C2BFD4EB0C0541EA045170BD41F4801187
:106550004FF0000E013C00F3AB8014F1360FDEBFAC
:10656000002001F0004170BDC4F10004203C35DA88
:106570000C341BDC04F11404C4F1200500FA05F30B
:1065800020FA04F001FA05F240EA020001F00042AC
:1065900021F0004110EBD37021FA04F642EB060122
:1065A0005EEA430E08BF20EAD37070BDC4F10C044C
:1065B000C4F1200500FA04F320FA05F001FA04F210
:1065C00040EA020001F0004110EBD37041F10001FC
:1065D0005EEA430E08BF20EAD37070BDC4F1200507
:1065E00000FA05F24EEA020E20FA04F301FA05F26F
:1065F00043EA020321FA04F001F0004121FA04F217
:1066000020EA020000EBD3705EEA430E08BF20EAE6
:10661000D37070BD94F0000F0FD101F00046400020
:1066200041EB010111F4801F08BF013CF7D041EAA2
:10663000060195F0000F18BF704703F000465200A6
:1066400043EB030313F4801F08BF013DF7D043EA77
:106650000603704794EA0C0F0CEA135518BF95EA2D
:106660000C0F0CD050EA410618BF52EA4306D1D1B4
:1066700081EA030101F000414FF0000070BD50EAD3
:10668000410606BF1046194652EA430619D094EA5D
:106690000C0F02D150EA013613D195EA0C0F05D147
:1066A00052EA03361CBF104619460AD181EA03019B
:1066B00001F0004141F0FE4141F470014FF0000053
:1066C00070BD41F0FE4141F4780170BD70B54FF0EE
:1066D000FF0C4CF4E06C1CEA11541DBF1CEA13556E
:1066E00094EA0C0F95EA0C0F00F0A7F8A4EB050450
:1066F00081EA030E52EA03354FEA013100F0888047
:106700004FEA03334FF0805545EA131343EA12630F
:106710004FEA022245EA111545EA10654FEA0026C4
:106720000EF000419D4208BF964244F1FD0404F57D
:10673000407402D25B084FEA3202B61A65EB0305D9
:106740005B084FEA32024FF480104FF4002CB6EB96
:10675000020E75EB030E22BFB61A754640EA0C0016
:106760005B084FEA3202B6EB020E75EB030E22BF56
:10677000B61A754640EA5C005B084FEA3202B6EB97
:10678000020E75EB030E22BFB61A754640EA9C0056
:106790005B084FEA3202B6EB020E75EB030E22BF26
:1067A000B61A754640EADC0055EA060E18D04FEAE4
:1067B000051545EA16754FEA06164FEAC30343EA84
:1067C00052734FEAC2025FEA1C1CC0D111F4801F51
:1067D0000BD141EA00014FF000004FF0004CB6E74A
:1067E00011F4801F04BF01430020B4F1FD0C88BFE9
:1067F000BCF5E06F3FF6AFAEB5EB030C04BFB6EBF4
:10680000020C5FEA500C50F1000041EB045170BDE6
:106810000EF0004E4EEA113114EB5C04C2BFD4EB13
:106820000C0541EA045170BD41F480114FF0000E97
:10683000013C90E645EA060E8DE60CEA135594EA13
:106840000C0F08BF95EA0C0F3FF43BAF94EA0C0F16
:106850000AD150EA01347FF434AF95EA0C0F7FF48B
:1068600025AF104619462CE795EA0C0F06D152EADF
:1068700003353FF4FDAE1046194622E750EA4106C3
:1068800018BF52EA43067FF4C5AE50EA41047FF4D4
:106890000DAF52EA43057FF4EBAE12E74A0011D286
:1068A00012F5001211D20DD56FF47873B3EB62526A
:1068B0000ED44FEAC12343F0004343EA505323FA76
:1068C00002F070474FF00000704750EA013002D1EB
:1068D0004FF0FF3070474FF00000704753B94AB98E
:1068E000002908BF00281CBF4FF0FF314FF0FF30D8
:1068F00000F00CB8ADF1080C6DE904CE00F008F81A
:10690000DDF804E0DDE9022304B07047704700BF02
:106910002DE9F04786468C460846089E1546744683
:106920001946002B40F0C2808542B2FA82F245D966
:106930004AB1C2F1200300FA02FC2EFA03F395409B
:1069400043EA0C0C94404FEA154EA8B2BCFBFEF88B
:10695000230C0EFB18CC08FB00F943EA0C439945C5
:1069600028D9EB1808F1FF3704D2994502D9A8F1CC
:1069700002072B44A3EB0903A4B2B3FBFEFC0EFBFE
:106980001C330CFB00F044EA0344A04214D92C1938
:106990000CF1FF3304D2A04202D9ACF102032C4423
:1069A000241A43EA07401EB1D440002334607360C8
:1069B000BDE8F0874746DDE76346F1E792BB431B3E
:1069C00001214FEA154EAFB2B3FBFEFC200C0EFBCB
:1069D0001C330CFB07F840EA0343984562D9EB18D7
:1069E0000CF1FF3004D2984502D9ACF102002B44DF
:1069F000A3EB0803A4B2B3FBFEFC0EFB1C330CFBA1
:106A000007F744EA0344A7424ED92C190CF1FF338F
:106A100004D2A74202D9ACF102032C44E41B43EA9E
:106A20000040C0E7C2F1200320FA03F195409040F6
:106A30002EFA03F303434FEA154EAFB2B1FBFEFC4F
:106A40000EFB1C10190C0CFB07F841EA00418845AD
:106A500004FA02F422D969180CF1FF3004D28845F7
:106A600002D9ACF102002944A1EB08019BB2B1FBB1
:106A7000FEFC0EFB1C110CFB07F743EA01439F428F
:106A80000ED9EB180CF1FF3104D29F4202D9ACF1C0
:106A900002012B44DB1B41EA004192E76046E3E739
:106AA0006146F7E76046A3E76346B7E7834206D946
:106AB00016B9002108467BE7C6E900E0F9E7B3FA1A
:106AC00083F78FB9834201D3724508D8BEEB020425
:106AD00060EB030301209C461EB9002168E738469D
:106AE000FAE7C6E9004CF8E7C7F1200CBB4022FAF0
:106AF0000CF41C432EFA0CF120FA0CF3B8400143BD
:106B00004FEA14490EFA07F5B3FBF9F81FFA84FEB1
:106B100009FB18300B0C08FB0EFA43EA00439A45B8
:106B200002FA07F240D9E31808F1FF3004D29A457F
:106B300002D9A8F102002344A3EB0A0389B2B3FBF4
:106B4000F9F809FB183308FB0EFE41EA03418E45B4
:106B50002CD9611808F1FF3304D28E4502D9A8F16F
:106B60000203214443EA0040A0FB0298A1EB0E017E
:106B70004145CE46434602D306D14D4504D2B9EB3A
:106B8000020E68EB04030138002EA6D0B5EB0E020E
:106B900061EB030101FA0CFC22FA07F34CEA030350
:106BA000F940C6E9003198E74046C5E74346D9E7D2
:106BB00010F8012B11F8013B012A28BF9A42F7D0A7
:106BC000D01A7047034611F8012B03F8012B002A55
:106BD000F9D17047034613F8012B002AFBD1181A8C
:106BE0000138704700000000F7B5404DD5F85C3122
:106BF000996811F0010124D101AA40F6034009F07F
:106C0000C3FF044600286DD1019CE3681B78ABB933
:106C10000BF080FABFF35B8FD5F8D430BFF35B8FF6
:106C200005F1D40203F00903BFF35B8F52E8001FA4
:106C300042E800300028F9D1BFF35B8F204621F0F5
:106C400025F801AA002141F2030009F09DFF044646
:106C5000002847D1019B264EDA68D2F80100D2F80D
:106C6000051003C6184621F011F8214601AA41F289
:106C7000010009F089FF0446A0BB0198C3685A7857
:106C800085F870205A88A5F872201A7985F8712045
:106C9000B3F80720A5F87420B3F80530A5F87630CE
:106CA00020F0F4FF214601AA41F2020009F06CFF36
:106CB0000446B8B9019FFA68531C413218685968F4
:106CC000344603C4083393422646F7D1094832F0CC
:106CD00089FA384620F0DAFF95F87C305B060BD451
:106CE0006FF01204204603B0F0BD00BF400000204A
:106CF000B8000020C000002001AA002142F20300D9
:106D000009F042FF04460028ECD1019BB64EDA6838
:106D1000D2F80100D2F8051003C6184620F0B6FFDD
:106D2000214601AA42F2020009F02EFF0446002883
:106D3000D8D1019CE368B3F8012091B249B1D97868
:106D400039B1A5F80421DA78114606F1280040F09F
:106D5000C0FE204620F09AFF95F87C6016F02006D1
:106D600018D1022140F66D4009F0B2FE0446002819
:106D700000F0CC8002210C3036F020FB01230370A0
:106D800046702146324640F66D4009F0FDFE04464D
:106D90000028A7D195F89C301F0712D501AA002121
:106DA00042F21C0009F0F0FE044600289AD1019836
:106DB000C368D3F80120D3F80530C5E9382320F0A3
:106DC00065FF95F8D8309E0624D50DF1020168467E
:106DD00032F029FD0446002884D1042142F2240027
:106DE00009F076FE0646002800F0908004210C3061
:106DF00036F0E4FABDF800300380BDF8023043807D
:106E00002246314642F2240009F0BEFE0446002824
:106E10007FF468AF95F8D8305C0610D501AA002140
:106E200042F22A0009F0B0FE044600287FF45AAF6F
:106E30000198C3685B7885F8203120F027FF08218E
:106E400042F2010009F044FE044600285ED0082109
:106E50000C3036F0B3FA95F8D81011F0400F024616
:106E600040F2022308BF032388074CBF43F02C00E5
:106E700043F00C0095F8D9308F0648BF40F0400031
:106E800013F0090F95F8A23018BF40F4006003F02A
:106E90000603CE0748BF40F01000062B08BF40F4A1
:106EA000C070002132F030FB2146002242F2010086
:106EB00009F06AFE044600287FF414AF95F87C3090
:106EC000B5F80411980624D4C9B901AA41F2050005
:106ED00009F05AFE044600287FF404AFB5F80431E7
:106EE000019C4BB9E368B3F80120A5F804219A8806
:106EF0003E48114640F0EDFD204620F0C7FE082137
:106F000040F6014009F0E4FD044638B96FF068042A
:106F1000E8E60029F3D16FF00404E3E608210C3021
:106F200036F04CFA95F8D830D907024653BF4FF0E7
:106F300000512BA1D1E900012D4832F0E5FA21469C
:106F4000002240F6014009F01FFE044600287FF4AD
:106F5000C9AE014601AA4FF6014009F015FE0446EC
:106F600020BB019820F092FE214601AA4FF6024074
:106F700009F00AFE0446C8B90198C368B3F80130A5
:106F8000A5F8C13020F082FE95F8C1305B070DD521
:106F900001AA21464FF6034009F0F6FD30B90198E9
:106FA000C3685B7885F8C03020F070FE32F0B4FE24
:106FB000044600287FF496AE0CF0D8FA0446002868
:106FC0007FF490AEEB79002B3FF48CAE082109489A
:106FD00032F000FA0AF074F984E600BFAFF30080E3
:106FE0009088000200800020180100204801002045
:106FF00010880002140100202DE9F843D0E90C3577
:10700000D0F82C805C193034A0450F46164619D8AC
:107010001D4DA3FB05011AA3D3E90023FFF75EFC76
:107020000346A4EB0800A0FB050123F07F4414A352
:10703000D3E90023FFF752FC20F07F403C60306032
:10704000BDE8F883DFF840900DA3D3E90023A8FB47
:107050000901FFF743FC044605F1300008A3D3E91A
:107060000023A0FB0901FFF739FC24F07F4420F046
:107070007F403C603060BDE8F88300BFAFF3008024
:107080008D49FD1A0700000000CA9A3B000000006D
:107090009FED0D7B124B134A1348144910B483ED36
:1070A000007B9FED0B7B82ED007B9FED0B7B104BFC
:1070B0004FF0FF34002281ED007B04601A605DF820
:1070C000044B13F0E1BA00BFFFFFFFFFFF1F0000FA
:1070D00000000000000000001F0000000000000091
:1070E000C8010020703C002080AC0020C0010020BE
:1070F00078AC002000000000002800F05F812DE93E
:10710000F04FB54C94F86A2012F001058DB040F0B4
:10711000A78194F82500FF2300F0030084F82630AF
:107120001CF0DAFD94F86A00420727D494F829206D
:1071300094F8353004EB820204EB8303D66AD3F86B
:10714000388086B1A448314615F022FA33785B06C0
:1071500005D5062110F0C8F9002800F083819E486B
:10716000414615F015FA337813F00E0F40F0B78052
:10717000236A93B10C200DB0BDE8F08F2A4604F1CC
:107180006B01C0F3C0001CF043FFFF2884F8260009
:10719000CCD028461CF0E6FDC8E712F09FFB8146E4
:1071A000002800F0718112F0A5FB8246002800F053
:1071B000688115F01BFE0546002800F06781D0F8B5
:1071C00088004FF6FF732B8505F11C0B002800F09B
:1071D0004F8105F1780105F17C0210F091F9B5F8C5
:1071E00076307E4A23F4EF6323F0070343F4887379
:1071F00043F00103A5F876301346D2F80120C5F814
:107200009B21C5F8A12113F8012B9B88A5F89F317C
:10721000A5F8A53195F89A3102F0010262F3000356
:1072200062F3410385F89A3195F8393003F03F0352
:1072300063F07F0385F8393095F88E3023F007032B
:1072400085F88E3095F83C3023F00703002785F849
:107250003C304FF4C023C5F888312846C5E9127781
:10726000C5F88870A5F88C706F86C5F82E7085F803
:107270003B702F65A5F88E71A5F8847118F084FB1A
:1072800085F85071C5F8549116F06EF895F8943160
:1072900060F3020385F8943116F06CF895F8943198
:1072A00060F3C50385F8943195F8803167F34103A5
:1072B00085F880310121284616F0BCFC05F1D40088
:1072C00018F0EAF8C4E9189AC4F820B0C5E90577BF
:1072D0002F70ED611DF0CEFF002840F0C58094F8BE
:1072E00024300121C3F342030DF12B008DF82B3024
:1072F00010F0A4FA0246002862D098F80110304637
:1073000014F008FF31233649A360364BB4F8687097
:10731000A0FB01010025C01841F107012CA3D3E90E
:107320000023C4E9055525706560E560FFF7D6FACE
:10733000206111F0B7FD00F109083FB9357805F07B
:107340000F05A5F10105B5FA85F56D0994F824003E
:10735000236965F3000010F0010584F824004BD088
:10736000214A0992002010600225204A204F0493F0
:107370000BAE019305920321CDE90200069443462A
:107380000090089607972A460B9511F029FC314684
:1073900012F06AFBA0B9174905914AF2D83300935D
:1073A000CDE90300CDE9010007970896069443460E
:1073B000012203210B9511F0DFFB43E014F0F6BD31
:1073C000236A002B3FF4D6AE14F0AEFDD2E600BF28
:1073D0008D49FD1A0700000038AD0020B7E3060014
:1073E00000CA9A3B8C49FD1A2CAD002091C10300C4
:1073F00031900300A5BC03002B4A2C48049303F2F0
:1074000047130694029591211360A7FB000301FB2B
:107410000731274B0793274B05934FF6FF730992CC
:10742000022703930BAE1EA3D3E900230B97089604
:10743000FFF754FA4346CDE900503A462846032167
:1074400011F0CEFB314612F00FFB0028B8D194F8B2
:107450006A3043F0010384F86A3015F0BBFA60B17A
:10746000002088E6122086E614F05EFD032082E606
:1074700005F18000C5F88800ABE601201CF00EFC89
:10748000EEE7484612F030FA072074E6504612F054
:1074900037FA484612F028FAF6E700BFAFF300804B
:1074A0008D49FD1A070000002CAD0020002AE7845A
:1074B0003190030091C1030070B590F824308AB078
:1074C000C3F342030D46044601210DF12300164685
:1074D0008DF8233010F0B2F971780246284614F086
:1074E00019FE1F491F4AA0FB0131981841F10701FD
:1074F00019A3D3E90023FFF7F1F923699842054660
:1075000021D21B1A00220192174A0293174BA21A8A
:10751000A3FB02320221920900230A4409AE099119
:1075200013490591CDE903330321D2B206960093A6
:10753000184611F0B5FB314612F096FA38B92561BC
:1075400000200AB070BDFBD9C21A0023DBE70C2073
:107550000AB070BDAFF300808D49FD1A070000002E
:1075600000CA9A3B8C49FD1A38AD0020898888886A
:10757000319003000000000038B5194C9DF810E070
:1075800094F848C01CF0010523D163F3420C40017C
:1075900094F83230A1874FEACE0E0EF0180E00F0AC
:1075A000200040EA0E0023F0380303430D4884F81E
:1075B00032309121A2FB000384F848C001FB023164
:1075C00005A3D3E90023FFF789F9C4E91000284691
:1075D00038BD0C25284638BD8D49FD1A070000002E
:1075E000783C0020002AE78410B504469DF8080086
:1075F00022844FEA411CC000A17D00F018000CF06D
:10760000200C4CEA000C0C4821F038014CEA010C2B
:10761000A3FB0002912184F816C001FB032104A3FF
:10762000D3E90023FFF75AF9606210BDAFF3008081
:107630008D49FD1A07000000002AE78400000000C1
:107640002DE9F047044600F1350190F8480094F820
:1076500032305B4DDFF88081C0F3400060F3861369
:107660008CB084F8323011F06FFC94F83220A38F84
:107670005448E46102F07902002784F83220912115
:10768000A3FB0002C4E90577277001FB03214AA38D
:10769000D3E90023FFF722F9651B626C4A4B676050
:1076A000AD08A3FB053502F10903984298BF3A469D
:1076B000C5F3470522644FF031028CBF19460146DD
:1076C000A26005EB4502E760216148F822100646FA
:1076D00011F0E8FB236A00F109074FEA450A002B85
:1076E0004AD00DF12C09AA4408EB8A030993CDF87E
:1076F00020900694A38F33484FF00008A3FB0002AC
:10770000CDF80C80912101FB0321236904932F4BB9
:1077100007932F4B05934FF0020A27A3D3E90023C9
:10772000CDF82CA0FFF7DAF8104619464FF47A721C
:107730000023FFF7D3F80435EDB2CDE90160032152
:107740003B462A46CDF80080404611F049FA4946AA
:1077500012F08AF960B994F8483043F0010384F8D4
:10776000483014F0EBFE08B300200CB0BDE8F08701
:107770000C200CB0BDE8F0870DF12C09CDE90A33DF
:1077800021694B460AAA032001F096F90028AAD1E4
:107790000B99104808A3D3E90023A1FB0001FFF7D0
:1077A0009DF80A9B20F07F471F449CE750461CF041
:1077B00075FAD9E7AFF300808D49FD1A0700000084
:1077C000783C0020002AE784BD86F21A319003003D
:1077D000C5C7030000CA9A3BC8AD002000000000E6
:1077E0002DE9F04F05468BB08B46012002219A46C9
:1077F00014461FF0E3FF00220221814601200FF012
:10780000CFFE3B494FF4D47228460FF059FE461D77
:10781000F6B2384B009532460121002011F058FA9B
:1078200010F0FD0F0CD0344A3449354840F62F0390
:107830002FF0D5FD404080F311884FF0030002DFA8
:10784000304BA4FB0348204627A3D3E9002341463D
:10785000FFF744F82C4B20F07F47A7FB03310722AA
:10786000E01A02FB071168EB01014FF47A72002362
:10787000FFF734F8CDE90170CDF800B00895069512
:10788000296995F9394021480491214931EA2401B7
:1078900028BF014605911F4C07944FF6FE710391D6
:1078A000534632460121002011F066F910F0FD0F19
:1078B0000CD0114A1149124840F644032FF08FFDB5
:1078C000404080F311884FF0030002DFB9F1000F50
:1078D00002D10BB0BDE8F08F0122022110460BB09F
:1078E000BDE8F04F0FF05CBE8D49FD1A07000000A7
:1078F000C83C002095CD0300D4B1060098B2060024
:1079000070AC060000CA9A3B8D49FD1A0D2E04008A
:10791000B52F04003DCD03002DE9F043C469228D4D
:107920004FF6FF739A428DB000F0888005462046DE
:1079300018F022FB95F82830012B00F00F81022B64
:1079400000F00281002B00F0E18094F85071002FCC
:1079500040F0FD80E68DB4F83080002E71D1AA8C05
:1079600008F101060023CDE90A33B6B2002A70D02F
:1079700094F93930002BC0F248810023A4F88A31F1
:1079800095F82630D90740F1EF800023A4F88E3116
:107990000DF127023146204618F032F8743000F01D
:1079A0004681B4F888312BB1B34240F20D819B1B64
:1079B000A4F88831B4F884312BB1B34240F2FB8093
:1079C0009B1BA4F88431258E17B9A84500F0EA80E6
:1079D0000135ADB294F8D13013F001065AD1DDE98A
:1079E0000A130A46002B40F0ED80002900F0DC80ED
:1079F0001E461846228DE4690694CDE903570532E8
:107A0000A74D0290CDE90016D2B2012100200595C4
:107A100011F046F910F0FD0F10D012F04FF884422B
:107A20000CD0A04AA049A14840F215532FF0D7FC32
:107A3000404080F311884FF0030002DF0DB0BDE835
:107A4000F083AA8C46440023CDE90A33B6B2002A5B
:107A50008ED195F82630DA0797D4B4F88A31002B06
:107A600000F08280B34240F2FA809B1BA4F88A3176
:107A7000B4F88E31002B8BD09E4280F0DE809B1BB1
:107A80009BB20022062BA4F88E31228600F2AC8035
:107A900001277DE794F939206FF30003002A84F869
:107AA000D13077DB94F87600C0F3C00100F0070016
:107AB0001DF046FAB4F86E20B4F86C30134403F2AB
:107AC000D51303447A4A7B480721E3FB0021104683
:107AD00071A3D3E90023FEF701FFDDE90A1320F0CB
:107AE0007F4220692261904235BF161A801A002019
:107AF00000260A46002B7FF47DAF56EA010C7FF486
:107B000079AF002850D019461E4673E794F88E309E
:107B100003F01803182B7FF418AFA18DB4F8862159
:107B20008B1D9A42C4BF931F5B1AB4F88211CCBF5D
:107B30009BB21346994200F08C80A4F88231A4F8DD
:107B40008431A4F8882100E73D2784F85071394634
:107B500020460DB0BDE8F04315F02ABD0023A4F87F
:107B60008831A4F88431F0E6B4F88E31002B83D14B
:107B7000628DB4F88C3140F2E24101FB02F242F234
:107B8000107101FB0323013BB3FBF2F39BB2A4F89A
:107B90008E316FE794F87700012100F007001DF0A7
:107BA000D1F987E73D4615E7002D4BD00026114659
:107BB000304633461EE70023A4F88431204617F0F0
:107BC000BFFF00E7304615E711F0E0FE0146002850
:107BD0003BD00023A4F88831238DC3801B2303717D
:107BE000006811F09DFEE5E694F939309342BFF646
:107BF000CFAEB8F1000F7FF44BAFD4F878315A080C
:107C0000DB0743D4C4F87821C2E628460AAA0BA9A8
:107C100004F1D409FFF7F0F9484617F07FFC18B3D8
:107C2000484617F07BFC18B300232386A5E69DF891
:107C30002710204615F0BCFC00E70821204615F06F
:107C4000B7FCFBE6002FB1D1F8E60123A4F8883198
:107C5000B0E6B4F8881100297FF477AE6FE73E21D3
:107C6000204615F0A5FCE9E6FF2015F059FCD7E702
:107C70000246D4E91E010FF05BFC0028D4D194F831
:107C80003C30580744BFA38D238676E642F000427D
:107C9000C4F87821FCE600BF8D49FD1A07000000FA
:107CA000FDCC0300D4B10600E4B2060070AC0600BF
:107CB0008C49FD1A00CA9A3B2DE9F04F87B0CDE9F7
:107CC0000432BDF8442003780292BDF84820BDF884
:107CD0004080BDF84C50468EB0F82E90B0F814B1EC
:107CE000019104460392002B00F0CB80013EB6B216
:107CF000A368D4F80C71721B92B2002B009209DABF
:107D0000E168626823F0004391422CBF7F18BF18DE
:107D1000A360FF1A009A638D13FB02F39BB2B3FBBF
:107D2000F8F218FB02F080B283421FFA82FA80F068
:107D30009780C01A40F2E2425D4902FB00F0A0FBCE
:107D4000010159A3D3E90023FEF7C8FD20F07F40CD
:107D50000744D94494F839304D44AD1B554440F2A2
:107D6000E246DB09E58506FB08F500F08E80226C13
:107D70000099A36CDFF838B102FB1133A3641DF046
:107D8000CBFA814694F87401C0F342001DF0C6FAA4
:107D9000059B814406FB03F305FB09F9236509F5FF
:107DA0007429444B09F23F29A3FB09394FEA99434F
:107DB00003FB0AF02364A5EB0309A36C6A080344E0
:107DC000963A934228BF1346C4E911230023C4F80E
:107DD0007C31A0FB0B0134A3D3E90023FEF77EFD29
:107DE000049B3F1A3448A0FB0330800A06FB00F0D6
:107DF0002DA3D3E90023A0FB0B01FEF76FFD20F0BC
:107E00007F46029BA385039BA4F88C31294620461C
:107E1000A4F82A8017F030FE284BA18D2B44881D32
:107E2000B3FBF5F39AB29042A4F8862102D2521A1B
:107E3000063A92B2019BA4F8822113B10023A4F860
:107E40008E313B464A4631462046FFF7C9FC94F83E
:107E5000803143F0010384F8803107B0BDE8F08F32
:107E600008FB1231124840F2E24389B203FB01F1F0
:107E7000A1FB00010CA3D3E90023FEF72FFD3F1A5D
:107E800067E74E445E44B6B232E7049B0848A3FB62
:107E9000000105A3D3E90023FEF720FD20F07F4673
:107EA000A9460136ADE700BF8D49FD1A0700000065
:107EB00000CA9A3B83DE1B435917B7D17FC3C90160
:107EC0002DE9F04F04460B68077F1668D3F800A031
:107ED000638CD0F81E0095B015464A7CADF84C3046
:107EE000FF2AC7F3801389460D9212908DF83F3018
:107EF00072D198461A4612AB93E803000DF1400B7D
:107F00001090ADF84410F8090AF1710127680A9140
:107F10005B460C900B9715F033FA0A99002843D171
:107F200096F89A310C9A0A9068F3410362F30003C1
:107F300086F89A311098BBF80430C6F8A101A6F86B
:107F4000A531DAF87130C6F89B318B88A6F89F31DD
:107F5000E38D94F83010A9722B81D4F82A306B602D
:107F6000D4F83A30AB6105F1180094F83E30037153
:107F700005210FF063FC6B7F00F03F0060F3050309
:107F80006B7794F83F30C3F30401A977A18EE981A0
:107F9000012803F01F0389B206D91B3303F01F0326
:107FA0000B2B01D80A9A59BB0022CAF8142095F865
:107FB00020300B9862F3000385F82030E568012635
:107FC0002146267111F0A2FC28682E71294611F075
:107FD000A7FC15B0BDE8F08F0DF1400B10460DF178
:107FE0003F015A461BF0D0FB9DF83F80277F08F1E8
:107FF00002085FFA88F88DF83F8008F0010282E7F6
:10800000D9F800305A60E38E2B82EB8940F2E248C7
:1080100008FB03F71146638E0A93304617F040FDC4
:1080200094F83F3096F874215B0963F3430286F8B5
:1080300074211DF071F90C9096F87401C0F34200A0
:108040001DF06CF90C9B184407FB00F0BA4B00F5CF
:10805000742000F23F20A3FB00307B08800C963B8D
:108060006862AB6294F8313008FB03F3AB63238F93
:10807000A6F88C313946304617F0FEFCAF4BB04ABB
:10808000C6F890213B44B3FBF7F39AB2A6F88621D9
:10809000298A881D824204DDC1F57F41FA310A44F4
:1080A00092B2A6F882216B68C6F87831234613F89D
:1080B0001C2FC2F34018DA0700F104814FF48073DB
:1080C000A3839AF826001CF0B9F804F12B030028CA
:1080D00000F0EE80626AC4F82B20228D9A800D9BFE
:1080E000FF2B00F0E980BDF84C301298A4F829303D
:1080F000C4F82500BBF80430A4F8233010989DF88C
:108100003F30C4F81F00A377EB8963862B8AA386D0
:10811000B6F88C31E38696F87431C3F3420384F8E1
:108120003830304614F06EFEA881E08021460B986E
:10813000D9F8044011F0EAFBAB89E3801C23D4F8A2
:1081400000B02371B8F1000F40F0D18084F81C809A
:108150002146584611F0E4FB95F85B00B5F85080D5
:10816000B5F85240012100F007001CF0EBFE44443A
:1081700004F2D514DFF8D481044483467148072102
:10818000E4FB080131230024B360746068A3D3E9E1
:108190000023F460FEF7A2FB20F07F4030616D6A9F
:1081A0000A9A7D1BD9F80C7040F2E24303FB027778
:1081B0000221224601200FF0F3F9504614F0A4F9F1
:1081C00007F2B2470246A7EB0B07A7FB08011746C9
:1081D00057A3D3E90023FEF781FBCDF804A0D9F81B
:1081E00008305949009120F07F48BA1C3A3BD2B27E
:1081F00020464344012110F0ADFD012800F08280AB
:108200009AF82430DB076AD4304614F0FBFD4F4B5C
:10821000A5FB035A044646A3D3E90023284651464A
:10822000FEF75CFBD9F80830494A0792A3F13A09F6
:10823000484B069620F07F47A7FB0331E81A464BD0
:10824000059340F2D113089333694FF0000BCDE949
:1082500003B34FF0070303FB07116AEB01014FF46F
:108260007A720023FEF73AFB0534E4B2CDE90170DF
:10827000CDF800804B4622460121584610F07CFC88
:1082800010F0FD0F0CD0354A354936484FF4E973EC
:108290002FF0A5F8404080F311884FF0030002DF73
:1082A0000122022110460FF07BF915B0BDE8F08FD6
:1082B000C4F82B00988012E70022C4F82520A4F807
:1082C000292017E7254A28492648F8232FF087F860
:1082D000404080F311884FF0030002DFEEE60023F8
:1082E000012200931846114610F0F2FC8CE76B7FD8
:1082F00043F040036B77281D1BF03EF84FF0010858
:10830000E88323E711F0DAFB82453FF479AF134AA3
:108310001649144840F279232FF061F8404080F369
:1083200011884FF0030002DF6AE700BFAFF300805F
:108330008D49FD1A0700000083DE1B437FC3C9017E
:10834000404B4C008C49FD1AD12D040000CA9A3BC9
:10835000A12D04008D49FD1A0D2E040084B70600DE
:1083600098B2060070AC060034AF0600E0B7060015
:108370002DE9F04F8DB01F46BDF860300793CDE971
:108380000501BDF868309DF85C90BDF864B00493B9
:108390000020164614F02CFB002800F0658109F03F
:1083A00001080446404610F0BFFD0390B8F1000FED
:1083B0006DD1169B03993A46404614F0E1FF002820
:1083C00040F06381236A04F11C020892002B65D0FF
:1083D000D4F820A0DAF8005007F0010B9AF85A0000
:1083E000C0F3C00100F007001CF0AAFDBAF852105B
:1083F000BAF8502000F2D5130A441344CC48CD4AB1
:108400000721E3FB00211046C7A3D3E90023FEF7B1
:1084100065FA20F07F40286130461BF07FFC94F81D
:1084200033306FF3410384F83330FF2384F8343062
:10843000002E00F01D81A9F10203012B40F22981D9
:1084400094F84810089869F3420184F8481094F8A9
:1084500033106BF30001DDE9052384F8331016991E
:108460000968616216998988218504992186009698
:108470000021FFF7B9F860641CF0FCFE002840F012
:1084800013812046FFF7DCF80DB0BDE8F08F062120
:108490000FF02AF800288CD11220F5E711F01EFA0F
:1084A0000990002800F0738114F0A0FC0546002814
:1084B00000F06A8120300FF0D5F905F11C0A002880
:1084C00040F01D81032105F124001CF0EDFB079B0A
:1084D000D5F888006B854FF6FF73A5F82CB02B8577
:1084E000002800F0198105F17C0205F178010FF0F8
:1084F00007F8B5F8763023F4EF6323F0070343F46D
:10850000887343F00103A5F8763095F88E304FF06C
:10851000000B23F0070385F88E300121C5F888B0E1
:10852000A5F88CB0284615F085FBC5F82EB0A5F847
:1085300032B005F134001AF0C9FE95F8393060F315
:108540000503012185F839300DF12F001CF0ACFB3B
:10855000049B9DF82F20A5F88C31774B85F83BB014
:10856000A3FB0213DB0803EB4303A2EB830295F8A2
:108570003930A98DA5F88EB103F03F0385F8393065
:1085800095F83C30A5F884B1053223F0030385F853
:108590003A20079A85F83C3040F2E24B674B0BFBE0
:1085A00002FB4FF4C0225B44C5F88821881DB3FB51
:1085B000FBF39AB28242A5F8862102DD063A521AEE
:1085C00092B2A5F88221284617F0DEF959462846CE
:1085D00017F052FA099BC5F85431002385F8503141
:1085E00014F0C2FE95F8942160F3020285F89421FC
:1085F00014F0C0FE95F8942160F3C50285F894212B
:1086000095F88021002363F3410285F8802105F16C
:10861000D40016F041FF95F89A21169907F0010B46
:108620006BF3410285F89A213122AA600023169A41
:108630006B60EB601268C5F8A12195F89A218988D2
:10864000A5F8A51169F30002039985F89A210A6833
:10865000C5F89B218A88A5F89F21C4F820A0C5E908
:1086600005332B70ED61B9E60C200DB0BDE8F08F3D
:108670001BF094FF00283FF4DEAE169938463246D0
:108680001BF0C6FC84F83400D5E60B200DB0BDE825
:10869000F08F00201BF066FB94F8333043F00203A8
:1086A000C14684F83330CBE6256AEB6E63B1244AC9
:1086B0002449254840F21D432EF091FE404080F3AE
:1086C00011884FF0030002DF05F1600105F15C0045
:1086D0000EF01AFF064600283AD02F68EE66D7F84B
:1086E0005451002D42D0284611F0FEF8384614F0BF
:1086F00083FB0023032023620DB0BDE8F08F104AF6
:1087000012491148C1232EF06AFE404080F31188BF
:108710004FF0030002DFD5E605F18000C5F88800C0
:10872000E1E600BFAFF300808D49FD1A07000000AD
:1087300000CA9A3B8C49FD1AABAAAAAA7FC3C901F9
:1087400010B80600C8B0060070AC0600CCAC06003D
:10875000104A1149114840F21F432EF040FE40409C
:1087600080F311884FF0030002DFB6E7094A0A4997
:108770000A4840F226432EF032FE404080F3118832
:108780004FF0030002DFAEE7099811F0ADF80720C3
:108790007AE600BF10B8060024B2060070AC0600EE
:1087A0002DE9F04F04468DB090F81C80238D406A6F
:1087B000ADF82C30E307C8F3C0170E461546C8F3D2
:1087C00040180A9000F10D810023A383B37C707CD4
:1087D00013F001031CBFD4F81E30C4F82B3004F191
:1087E0002B0214BF638CC4F82B30FF28938004F154
:1087F000250904F11F0240F0E5800023BDF82C108C
:108800000A98C4F82530A9F80430A777C4F81F00E7
:1088100091803368D3F80090EB8963862B8AA38616
:10882000B9F83030E3861CF075FD84F838002F6805
:10883000384614F0E7FA0021A881E080384617F0A6
:108840002FF9D6F804A02068214611F05FF8AB8913
:10885000AAF806301C23DAF800408AF80430B8F190
:10886000000F40F0CC808AF81C805146204611F061
:1088700057F8BB687A6895F85A00B5F80E80F56825
:10888000674C934238BF1346C0F3C00103F1090A95
:1088900000F0070040F2E24303FB08F81CF050FB35
:1088A000002202212D1A01200EF07AFE484614F013
:1088B00075F8A5FB044558A3D3E900238346294650
:1088C0002046FEF70BF8CDF80490B36855490091A7
:1088D00020F07F490BF10402A3EB0A03D2B24B4410
:1088E0000121002010F036FA10F0FD0F0CD04E4A96
:1088F0004E494F4840F23D332EF071FD404080F329
:1089000011884FF0030002DF4FF0000B5B4603229B
:108910000121CDF800B0584610F0DAF9384614F0CD
:1089200071FAB36806463E48A3EB0A0AA8FB0001A9
:1089300039A3D3E90023FDF7D1FF19463D4B089336
:108940003D4B069340F26D33079709933B69804690
:10895000CDE904B3104600234FF47A72FDF7BEFF51
:10896000364B0722A9FB0331CDE9028002FB091136
:10897000E01A65EB01014FF47A720023FDF7AEFFB8
:108980000536F6B2CDE900905346324601215846ED
:1089900010F00EF910F0FD0F0CD0234A23492448A3
:1089A00040F26E332EF01BFD404080F311884FF0F3
:1089B000030002DF0122022110460DB0BDE8F04F96
:1089C0000EF0EEBD04F11E011AF0DEFEA37FBDF82D
:1089D0002C200A98C4F825000233A377A9F80420B4
:1089E00017E7114A1649124840F2BD232EF0F7FC52
:1089F000404080F311884FF0030002DFE4E66B7F14
:108A000043F040036B77281D1AF0B6FC4FF00108C5
:108A1000E88328E7AFF300808D49FD1A07000000C6
:108A200000CA9A3B812F040010B8060098B20600D5
:108A300070AC0600852F0400B52F04008D49FD1A87
:108A400034AF0600000000000538C3B2052B0CD877
:108A500070B580B20D4614F0DDF9044618B190F9F6
:108A60003930002B03DA002070BD0020704790F8E9
:108A700076000F4EC0F3C00100F007001CF060FA52
:108A80000C4A00F2B5500721E0FB0621104606A370
:108A9000D3E90023FDF722FF20F07F402860204625
:108AA00070BD00BFAFF300808D49FD1A07000000C4
:108AB00000CA9A3B8C49FD1A2DE9F04F93B0FF2470
:108AC0000B930B1D0A930023CDE90E330546164682
:108AD0008DF837409B464FF0040A1F46994698464A
:108AE00010AB0693564B0593564B03930FAB019374
:108AF0000EAB0020009302231093049002903346A3
:108B00000DF13702294610F069F9022815D0109BA3
:108B1000CBB9FF2C26D03368BB4223D0BAF1000F6B
:108B200040D00AF1FF3AFF245FFA8AFA8DF8374005
:108B3000D6E72946002010F09DF9109B022BF8D0B3
:108B4000109B002BE5D0404A404941484FF4F77351
:108B50002EF045FC404080F311884FF0030002DF07
:108B6000FF2CD8D19DF83700FF2829D011A9FFF795
:108B70006BFF0028B4D0FF2C0E9F119B0AD04146FA
:108B80003846099310F090F90A9B03EB09029042D2
:108B9000099B17D8B8469DF837403768DDF83CB0D8
:108BA00099469DE72B49284A29484FF4FB732EF03C
:108BB00016FC404080F311884FF0030002DFB0E75D
:108BC000FF2C34D024480721A9FB000301FB093105
:108BD00019A3D3E90023FDF781FE044600B1403418
:108BE0001E4AABF57423A3F51073934216D81A48A6
:108BF0000721A8FB000301FB08310FA3D3E90023E1
:108C0000FDF76CFE164BA3FB0B2304EB93440B9B6D
:108C1000044400201C6013B0BDE8F08F0BF1E87B2A
:108C20000BF5D43B08F1FF380BF5A57BDFE76FF0C0
:108C3000090013B0BDE8F08F00CA9A3B00000000A5
:108C400091320400953204005CB80600A0B806001A
:108C500070AC0600A8B806008D49FD1ABFBDF07FB4
:108C600083DE1B43000000002DE9F043C66847681F
:108C700073683D491A68D0F80090A7F57423A3F5EE
:108C800010738B4283B0804607D907F1E87707F568
:108C9000D43709F1FF3907F5A57773681169DD89C4
:108CA000CDF8049006F1100301AA0220FFF704FF9B
:108CB00000284ED10199A1EB09031B0237D40846C5
:108CC000494610F0F1F8034628480721A3FB0002AB
:108CD00001FB032122A3D3E90023FDF7FFFD346943
:108CE0000444002C346109DB40F2E24305FB03F34A
:108CF000A3422FD2E41AA342FCD33461D8F8003047
:108D00001A48A3EB0903A3FB0002072101FB03217F
:108D100013A3D3E90023FDF7E1FD154BA3FB0737B0
:108D2000A0EB97402044306103B0BDE8F083484693
:108D300010F0BAF803460D480721A3FB000201FB1F
:108D4000032107A3D3E90023FDF7C8FD3469241AE2
:108D5000C7E73469002CD1D103B0BDE8F08300BF70
:108D600000CA9A3B00000000BFBDF07F8D49FD1A8C
:108D700083DE1B430000000010B5334C3349002351
:108D800004F1FF3C14F83320072A02EB820E05D8C9
:108D900011F83E206FF3451201F83E201CF83320F5
:108DA0006FF300020CF833200133082BEAD1284A74
:108DB000284C002313700A7863F300020A7091F8BC
:108DC000282063F3000281F8282091F8502063F3F3
:108DD000000281F8502091F8782063F3000281F8B6
:108DE000782091F8A02063F3000281F8A02091F888
:108DF000C82063F3000281F8C82091F8F02063F3E3
:108E0000000281F8F02091F8182163F3000281F844
:108E10001821114A9FED0A7B1370104B83ED007BE4
:108E20000F4B236028B1BDE810400E490E483EF0BC
:108E300017BFBDE810400C483EF020BFAFF30080E4
:108E4000FFFFFFFFFFFFFFFF09BB0020C8B90020A5
:108E5000EAE80020D8B80020E9E80020E846002031
:108E6000A0BB0D00513F0400B846002000000000E8
:108E70002DE9F04F8FB00DF137010446DFF8E0A087
:108E8000DFF8E0800DF1360010F0C8FD9DF83630B7
:108E90009DF837B00B9310F005F8DAF80060A6FBE8
:108EA000085629A3D3E900230027814631462846E6
:108EB000FDF714FDCDE90777069420F07F44DAF83A
:108EC0000400234B0593A0FB08011FA3D3E9002353
:108ED000FDF704FD1F4B20F07F40A4FB0331072268
:108EE00002FB0411CDE90370E81A66EB01014FF4AF
:108EF0007A720023FDF7F2FC0097CDE901404B4662
:108F00000B985A4603210FF037FE10F0FD0404D0F1
:108F10006FF08B000FB0BDE8F08F0F480F4A0023B1
:108F20002BF0C8FC20B9DAF80C000FB0BDE8F08FC8
:108F30009DF837209DF836000094234603210FF05A
:108F4000C7FE6FF07300E5E78D49FD1A07000000CA
:108F5000A14604008D49FD1A7CBB0020447B0B0018
:108F600094BB002000CA9A3B38B50F4D04460FF061
:108F700099FFA9680FF098FF696803460B48B3FB97
:108F8000F4F4A1FB00011C4405A3D3E90023FDF781
:108F9000A5FC20F07F40844294BF0020012038BD12
:108FA0008D49FD1A0700000094BB002000CA9A3BBF
:108FB000F0B5C468636883B00546002B63D11DF02B
:108FC00043FF00201DF066FF002108461DF054FFFE
:108FD0000022252108201DF093FF454B019301A895
:108FE0001DF076FF434940F25B601EF021F8237AC2
:108FF000C3F3420262F30613204623721CF0ACFB5B
:109000001BF0CCFA58BB637A9B071FD127682E68E8
:1090100038461BF033FF06446A6806F10901012057
:109020001EF060F91EF04CFA204613F079FA811C0C
:109030003246C9B238461BF02FFF054670BB2046AA
:109040001BF0B6FE88B9002003B0F0BD01201AF075
:1090500019FE4178821C00781EF0E4F8D6E7607AA9
:1090600010F0030018BF0120F1E7234A23492448E8
:1090700040F22C432EF0B3F9404080F311884FF0BA
:10908000030002DFDFE793F820309A0797D01D48EE
:1090900021461DF097FE1DF085FFD4E7164A1A49B8
:1090A000174840F214432EF09AF9184B0721A5FBFC
:1090B000030301FB05310CA3D3E90023FDF70EFCEC
:1090C0001349024613482EF08AF9404080F3118874
:1090D0004FF0030002DF104821461DF073FE1DF023
:1090E00061FF6FF08B00AFE700CA9A3B0000000001
:1090F000D6BE898E5555550054BC0600DCAD060021
:1091000070AC060021500400F0AC06008D49FD1A39
:1091100004BD0600D8BC060029530400000000006E
:109120002DE9F041C46894F91630002B8CB0C0F2E0
:10913000FF80636805460E46002B40F0EE80A37D5D
:109140006FF30003A3751DF07FFE00201DF0A2FE4B
:10915000002108461DF090FE0022252108201DF068
:10916000CFFE012010F05CFD0746002800F0C7800C
:1091700007F11C001DF0EEFE874B0B930BA81DF0B2
:10918000A7FE864940F25B601DF052FFA07DC0F350
:10919000410025301BF092FE814821461DF012FE51
:1091A000A37D9B0603D46368002B00F0A580962066
:1091B0001EF08CF800231A46194618461DF09EFF33
:1091C0001BF0ECF9002838D1A37D13F0180F59D10A
:1091D000D4F800802F6840461BF050FE07446A68B0
:1091E00007F1090100201EF07DF81EF069F91DF05D
:1091F000F5FF204613F0E0FB011DC9B240463A4698
:109200001BF04AFE8046002840F0998016B9636A38
:10921000002B4ED1636843B1624B01220221002032
:109220009D600EF0F3F9002835D120461BF0C0FDFB
:10923000D0B900200CB0BDE8F081A07DC0F3C00023
:109240001AF020FD07460DF12B001BF01FF879786E
:109250008046BA1C38781DF0E5FF9DF82B000022EF
:1092600041461EF0FDF9B3E74F4A5049504840F2DD
:109270000B232EF0B4F8404080F311884FF0030028
:1092800002DFD6E701201AF0FDFC4178821C00784D
:109290001DF0C8FF9CE7444A4649454840F2062372
:1092A0002EF09DF8404080F311884FF0030002DF5C
:1092B000BBE7414A0792414A059240F2F3120093FC
:1092C0000892CDE90366CDE9016606943B46314636
:1092D00003220FF051FC10F0FD0F9BD0324A3849A9
:1092E00033484FF4FA732EF07AF8404080F3118837
:1092F0004FF0030002DF8DE71DF060FF60E72A4AB0
:1093000030492B484FF4C5732EF069F8404080F384
:1093100011884FF0030002DF2AE7636893F82030DA
:10932000D90705D4636893F820309A077FF507AF13
:10933000254821461DF046FD1DF034FE79E71A4A06
:1093400022491B4840F2E5132EF049F8204B072133
:10935000A8FB030301FB08310DA3D3E90023FDF7AC
:10936000BDFA1C4902461C482EF039F8404080F3F3
:1093700011884FF0030002DF184821461DF022FD3E
:109380001DF010FE6FF08B0054E700BFAFF30080BC
:1093900000CA9A3B00000000D6BE898E5555550084
:1093A00081940200280F002010BD0600DCAD0600ED
:1093B00070AC0600E4AD0600A15E0400415F04004D
:1093C00014B00600A0BC060021500400F0AC06005A
:1093D0008D49FD1A5CBD0600D8BC06007D5D040009
:1093E00038B504461CF07AFCA37DA27DC3F341038B
:1093F000013303F00303032B08BF002363F342028E
:1094000014BF03F125002520A2751BF057FD6368EA
:109410000BB123694BB90FF045FDC11C00201DF0B5
:10942000D5FFBDE838401EF04BB81DF0FDFF0546E6
:109430000FF038FDC11C00201DF0C8FF1EF040F8E1
:109440001DF0F2FF29460FF02FFD0B4A03460721BE
:10945000A0FB020201FB032105A3D3E90023FDF7D2
:109460003DFA23691B1A236138BD00BFAFF30080AA
:1094700000CA9A3B000000008D49FD1A0000000060
:109480002DE9F0478AB004461DF0BEFDC0B250B9C8
:109490001BF06CFDC44821461DF094FC0AB0BDE8E9
:1094A000F0471DF07FBD1DF0CFFD05461DF0EEFE1F
:1094B00007461DF0F5FE81461EF02CF906461EF00B
:1094C0000BF982461DF0A4FEEDB280461DF084FE2D
:1094D0001BF04CFD002DDDD0012010F0A1FB054656
:1094E000002800F04D8117F0FF07F6B240F0E3804E
:1094F000002E40F0DA804FF0FF093A464B463146E5
:1095000020461CF011FE0028C4D02A7F6168002389
:109510008DF823305FFA88F702F00F03002900F07E
:10952000EC80616891F82010880700F1E680072B35
:10953000B0D0A17D090740F14381002B40F0C480E9
:109540006B7F063B1F2BA5D8042010F069FB002879
:10955000A0D01DF0BDFF636A074643B9238C40F2DB
:10956000712202FB03F3B0FBF3F203FB1207236843
:109570001A698E4B0721A2FB030301FB023188A36A
:10958000D3E90023FDF7AAF96FF44A7C00EB0C0342
:10959000BB42FFF47FAF1DF011FE484663681AF02E
:1095A0005BFEE37D9907804640F1E581002800F0ED
:1095B000E281824601271DF055FDCDE9027A09AB13
:1095C000049305F11E0301932B7FC3F3801301461F
:1095D000074600930022012320461CF0BFFD3846B9
:1095E0001DF0BEFC1DF006FD002840F0CA81704849
:1095F00021461DF0E7FB626892F8203043F001033A
:1096000082F82030A37D43F08003A37510F02AFB7D
:10961000172202714FF6FF72C28095F81CC0824675
:109620003B46CCF3401C00F11C0207F1200E1D68E4
:1096300058689968DF68D7601033734515605060CB
:10964000916002F11002F2D11B6813609AF81C308D
:10965000CAF808406CF345138AF81C301DF0E4FE8C
:10966000002ECAF81000099BCAF8143008BF4FF04A
:10967000FF098AF81990E37D13F0020303D0B8F1D3
:10968000000318BF01239AF81A2063F300028AF836
:109690001A2010F0E7FACAF80C00DAF80000514678
:1096A0000AB0BDE8F04710F00BBB5FFA8AF01AF081
:1096B00061FE814621E7A07D5FFA89F1C0F3C00019
:1096C0001AF0EEFD814618E7012B40F089806A7F91
:1096D0000C2A7FF4DFAE2A7FCDF8009019460023D4
:1096E0000193D20905F1240320461CF071FC0028E7
:1096F0007FF42AAF2B7F03F00F03002B70D16B7F19
:10970000052B7FF6C7AE252B3FF6C4AEA27D02F037
:109710002102202A09D16268002A00F0C180052BAD
:109720007FF6B8AE252B3FF6B5AE63682BB12B7F25
:1097300003F00F03072B7FF4ADAE03209DF82380C9
:1097400010F06EFA054600283FF4A4AE10F08AFA35
:109750004FF6FF73EB8005232B71002F3CD17F2048
:10976000AB7E2876002E08BF4FF0FF0968F3410357
:10977000286885F81990AB76294610F0A1FA89E699
:109780000C4A0D490D4840F2C7232DF028FE4040F9
:1097900080F311884FF0030002DFA4E6AFF30080EE
:1097A00000CA9A3B00000000955D04008D49FD1A37
:1097B000855F040010BD0600A0BC060070AC06006A
:1097C000B9F1FF0F8DF82490C2F380184BD0227EA0
:1097D00091453FF4B2AE90E71DF00AFDC0B2BFE77D
:1097E000062B8CD04521D94011F0010139D1012B34
:1097F00010D16B7F0C2B7FF44DAE2A7FCDF80090FB
:109800000DF123030193D20905F1240320461CF036
:10981000DFFB08BB2B7F03F00F03042B7FF43AAE72
:109820006B7F063B1F2B3FF635AEA37DDB077FF535
:1098300031AE1DF017FC2B7F0278C3F38013B3EB1E
:10984000D21F7FF427AE0830062205F11E013EF03C
:1098500029FF00287FF41EAE6B7F002B7FF465AFDD
:1098600018E66B7F5BE705F11E0A09AA51464046E0
:109870001AF036FE00283FF43DAFE37D03F001030C
:1098800043457FF437AF5146062204F108003EF00D
:1098900009FF00287FF42EAF2B7F03F00F034CE667
:1098A000962007921DF012FD079A10461DF0DEFB70
:1098B000032010F0B5F9804600283FF4EBAD10F01E
:1098C000D1F94FF6FF73A8F80630052388F8043065
:1098D000002F64D17F23002E88F8183014BF4B4628
:1098E000FF2388F8193098F81A30D8F800006FF381
:1098F000410388F81A30414610F0E2F91DF0B2FB3E
:1099000006460322337862F3030333702B7F3278E9
:10991000C3F3801363F3C7120C233270484673708D
:109920001AF09AFCE27D92073DD500283BD03178B1
:10993000324641F0400102F8021B0168C6F80210ED
:1099400083889380D5F81E30B3606B8CB38130462A
:109950001DF006FB1DF04EFB002835D11DF0B0FDBB
:10996000A37D204843F001032146A3750AB0BDE85A
:10997000F0471DF027BAA77D04F1190AC7F3801735
:1099800019E6194A19491A4840F2A4432DF027FD57
:10999000404080F311884FF0030002DF27E61DF0FE
:1099A00027FCC3B297E7A37D3278C3F3801363F338
:1099B0008612334603F8022BD4F81920C6F8022089
:1099C000B4F81D209A80BDE7074A084908484FF4BB
:1099D000A5632DF004FD404080F311884FF0030093
:1099E00002DFBBE7A95D040010BD0600A8BC0600AD
:1099F00070AC0600000000002DE9F041C468A289A7
:109A00004FF6FF739A4282B000F0C78005461CF003
:109A1000A9FC2B89628AE08A1A4492B21044637FBF
:109A2000A28280B2411CE1825E064FF00001618299
:109A300004F1180100F18C8003F03F000B46A17F78
:109A4000009004F11F0019F04FFC0646D4E90B23E7
:109A50001344D4E90D0200210244E1626163A16A6A
:109A6000A26394F872208B4228BF0B4612F00402C6
:109A7000236377D01DF0E8F900201DF00BFA201DBC
:109A80001DF026FA2389A17A40F25B6043EA014186
:109A90001DF0CEFA30461BF011FA214658481DF051
:109AA00091F996201DF012FC94F85A2094F85B006E
:109AB000C2F3C003002102F0070200F007001DF00E
:109AC0001DFB20461CF0B0FC27682E6838461BF0B2
:109AD000D5F906446A6806F1090100201DF002FC70
:109AE00080461DF0C1FC00201DF0D8FC236B94F8CB
:109AF0005B0003F13002A36B00F00700012103EBD0
:109B000042051DF03BFA4544054494F85B0000F023
:109B10000700022824D004280CBF4FF4BC7328236C
:109B200001211D441DF02CFA28441DF08FFCA18951
:109B300005313246C9B238461BF0AEF9054698BB2E
:109B400020461BF035F9D0B9002002B0BDE8F08105
:109B50000A4603F03F03E18B19F012FC064675E755
:109B60001823DDE7D4E917010DF0E2FC002881D1CC
:109B700094F8723043F0040384F872307AE7214A93
:109B80002149224840F255132DF029FC404080F332
:109B900011884FF0030002DFD6E71D4821461DF073
:109BA00011F91DF0FFF9CFE7164A1A49174840F29C
:109BB0004B132DF014FC184B0721A5FB030301FBED
:109BC00005310DA3D3E90023FCF788FE13490246B3
:109BD00013482DF004FC404080F311884FF003003F
:109BE00002DF104821461DF0EDF81DF0DBF96FF0A3
:109BF0008B00AAE7AFF3008000CA9A3B0000000088
:109C000081660400DCBD0600DCAD060070AC060019
:109C100021500400F0AC06008D49FD1A30BE06004C
:109C2000D8BC0600FD4F0400F0B5C468A2894FF609
:109C3000FF739A4285B000F08B8005461CF092FBC2
:109C40002B89628AE08A1A4492B21044637FA2820E
:109C500080B2411CE1825E064FF00001618204F196
:109C600018015FD403F03F000B46A17F009004F180
:109C70001F0019F039FB0646204603A91CF0A2FC80
:109C8000039B94F872101A7861F3C3021A70039A56
:109C900094F872301178C3F3400363F382011170BA
:109CA0001DF0D2F800201DF0F5F8201D1DF010F970
:109CB0002389A17A40F25B6043EA01411DF0B8F9C3
:109CC00030461BF0FBF8039920461CF04FFC214660
:109CD00037481DF077F896201DF0F8FA94F85B00ED
:109CE00000F007001DF0C2F927682E6838461BF007
:109CF000C5F806446A6806F1090101201DF0F2FA70
:109D00001DF0DEFBA18905313246C9B238461BF091
:109D1000C3F8054618BB20461BF04AF850B900208E
:109D200005B0F0BD0A4603F03F03E18B19F028FBB4
:109D30000646A1E71F4A2049204840F203132DF0B0
:109D40004EFB404080F311884FF0030002DFE6E74E
:109D50001B4821461DF036F81DF024F9DFE7154AAF
:109D600018491648F9232DF03AFB174B0721A5FB9C
:109D7000030301FB05310CA3D3E90023FCF7AEFD7F
:109D80001249024612482DF02AFB404080F3118808
:109D90004FF0030002DF0F4821461DF013F81DF0BD
:109DA00001F96FF08B00BBE700CA9A3B000000008E
:109DB000B56404003CBE0600DCAD060070AC0600D5
:109DC00021500400F0AC06008D49FD1A8CBE06003F
:109DD000D8BC0600FD4F04002DE9F0472DED028BA5
:109DE0009FED498B4A4E84B004464FF02003EFF3B9
:109DF000118783F31288BFF36F8FD4F8C8508DB9E1
:109E0000022104F1E0003DF074FE002843D100235C
:109E10008DED008B029304F1D00239463D482BF0C2
:109E200027FAE2E7D4F8CC202B68C4F8C830954272
:109E300008BFC4F8CC30D4F8E03043F00203C4F8D3
:109E4000E030EB6823F0040343F00103EB606B6840
:109E500087F31188BFF36F8F284698474FF0200390
:109E6000EFF3118983F31288BFF36F8FEB689907C3
:109E700023F0010219D4EA60D4F8E03023F00203A1
:109E8000C4F8E03089F31188BFF36F8FDB05ACD4E1
:109E90002BF0CEF8A9E704F1D805002201212846CD
:109EA0003EF02DF80028F8D1B1E7306823F0030325
:109EB000EB600028E0D00027D0F80080BA460028E8
:109EC000DAD04268954201460BD1016897B97268B1
:109ED0003160824200D1716040F808AB2AF0C4FCC6
:109EE0003946B8F1000F0BD0D8F8002040460F4695
:109EF0009046E4E739607268824208BF7760EBE71A
:109F00004246F3E7AFF30080FFFFFFFFFFFFFFFFD5
:109F100084D4002021EA002001482AF0A7BD00BF18
:109F2000D002002007B53EF027F84FF47A72A0FB6C
:109F3000020302FB0131C00B074A40EA41401060B6
:109F400000234FF400420548CDE900232BF06EFBBF
:109F5000002003B05DF804FB905A0020F8130020A5
:109F6000014B187800F0B4BC94D50020044B1A784B
:109F7000824202D01870FFF7F3BF0020704700BF85
:109F800094D5002008B53DF0F7FF4FF47A72A0FB9E
:109F9000020302FB0131C00B044A40EA4140106059
:109FA000BDE808400020FFF7E1BF00BF905A002045
:109FB00008B53DF0E1FF4FF47A72A0FB020302FB0B
:109FC0000131114AC30B126843EA41439B1A0F4AFD
:109FD000934214DD02F0BCFE20B1BDE80840012030
:109FE000FFF7C4BF0220FFF7C1FF00F069FB0028A4
:109FF00003DABDE8084000F09FBB2DF0FDF947F201
:10A0000030529342E9DC08BD905A0020A0BB0D00FD
:10A01000014B1878704700BF94D50020F8B504466E
:10A0200010B900252846F8BD0378002BF9D00F4E53
:10A030000F4FBE420FD30D4EBE42F2D230683DF0FC
:10A04000ABFB30B1356821462868FCF7B1FD00282C
:10A05000E8D00436F0E730683DF09EFB18B1356873
:10A060002B68A342DED00436E3E700BF50B20700FE
:10A0700088B2070070B5194C194D8CB0002200232E
:10A0800003A920462AF0ACFA08B10CB070BD2B68C9
:10A09000059E5868DDE903122BF0FFFF0028EDDB79
:10A0A000FF238DF81830B6FA86F35B0907908DF818
:10A0B00020303DF061FF4FF47A72A0FB020302FBF7
:10A0C0000131C00B40EA4140C90B8DE8030006ABEB
:10A0D000CDE90A010FCB00F015FCCFE720160020D8
:10A0E0004C5B00201FB50A4C2468A46884420DD143
:10A0F00083F00103CDE901120393064800220023F7
:10A1000001A92AF017FA04482AF0B0FC04B010BDE7
:10A110004C5B0020201600203C5B00201FB5002374
:10A12000CDE90233044B8DF80C0001A801932BF00C
:10A13000D7FF05B05DF804FBDC9206000268034B14
:10A140009A420CBF08300020704700BFDC92060026
:10A15000014B03602A207047945A0020064B074A9F
:10A160001B68934206D0064A93420CBF01206FF051
:10A1700012007047002070474C5B0020C892060018
:10A18000B4920600F8B540EA0104012C74D8884264
:10A1900009D10021914202D100252846F8BD43F89B
:10A1A00021100131F6E7384C54F8200054F8211002
:10A1B000364C0D69A04207D0A142354C29D1A042AE
:10A1C000344C2CD0002606E081423DD030488142FC
:10A1D0003DD0304E002495424ED818464FF0FF3106
:10A1E0003EF0A9F8002203469542D6DD002E41D06C
:10A1F000002C3BD02046002150F8047FBA422ED1DB
:10A2000006EB8101496843F822100132AA42F1DBD2
:10A21000C3E7A04233D0A1421FD00024D2E704F10B
:10A22000AC062046B44604F1A80E50F8041F5CF8B2
:10A23000047F01310137B94238BF39468D4238BFFA
:10A240000D467045F1D1C6E7124C2646E9E7124C9F
:10A25000A4F1AC06E5E7104CF7E70F4CB2E701318B
:10A260002A29C9D10132AA42C2DB96E701329542BE
:10A27000FCDC92E70132B7E76FF015058DE781420C
:10A28000E9D0054E0024A6E754910600C8920600C6
:10A29000B49206005C9106000892060038B50446A8
:10A2A000002837D01D4D2B6883422FD053B19868BA
:10A2B00040B183685B6803B198472B6800219868B8
:10A2C00003F064FE164B9C4222D0164B9C4214BFF6
:10A2D0006FF012010121144B2A2201F0ED0101203F
:10A2E000FFF750FF002812DBA0682C6070B101213D
:10A2F00003F04CFE2B68986883680C491B689847EC
:10A300002B68986883689B6803B19847002038BD24
:10A310000021E0E76FF01200F9E700BF4C5B00207E
:10A32000C8920600B4920600945A0020E5A00200EC
:10A33000012838B505460BD8074B53F82000FFF726
:10A34000ADFF041E02DB2846FFF7E8FE204638BDBD
:10A350006FF01504FAE700BF54910600F7B50C46FC
:10A3600015460D4901AA1E462DF020FC68B1019B3F
:10A370006BB9012C0DD1094F224639463046A8470A
:10A38000002802DD3878FFF7D3FF03B0F0BD0020CE
:10A39000FBE76FF01500F8E7EADC06002013002069
:10A3A0000148FFF77BBF00BFB492060008B50F4815
:10A3B0000F493DF011FC0F482DF047FB18B10D4837
:10A3C00001212DF015FB0B482DF03FFB18B109487A
:10A3D00001212DF00DFB084A002342F8043B013314
:10A3E0002A2BFAD1BDE80840FFF7DABF3C5B00201A
:10A3F00075A002008C8B0600945A002030B51C4CCE
:10A4000004EB00148FB0606883683A21DB689847DA
:10A4100058BB60686189836804AD1B692A46984708
:10A4200018BB95E803000123069307AB83E80300FC
:10A430006389ADF824303DF09FFD4FF47A75A0FBA1
:10A44000053205FB0121DB0B43EA4143C90BCDE992
:10A450000A31237B8DF830300EAB13E90F008DE805
:10A460000F0006AB0FCB00F073FA0FB030BD00BF8A
:10A47000F002002010B5134CBFF35B8F54E8002F9F
:10A4800022F0010144E800100028F7D1BFF35B8FF0
:10A49000D20702D50020FFF7B1FFBFF35B8F54E86E
:10A4A000003F23F0020244E800210029F7D1BFF366
:10A4B0005B8F9B0704D5BDE810400120FFF79EBFCE
:10A4C00010BD00BF505B0020064901EB0012506830
:10A4D00030B183689B68114608310BB1024A1847B6
:10A4E000704700BFF0020020EDA4020010B5104C30
:10A4F0000C1B102C1BD824113DF00EFA90B1BFF3A9
:10A500005B8F01230B4AA34052E8000F184342E837
:10A5100000010029F8D1BFF35B8F0748BDE8104068
:10A520002AF0A4BA2046BDE81040FFF767BF10BD6F
:10A53000F8020020505B0020E002002002289ABFB1
:10A54000024B03EB40000020704700BF10120020B8
:10A5500001482AF08BBA00BF1003002008B501F0B3
:10A560001FFB28B1837A1BB9024A136801331360B9
:10A57000002008BD545B00202DE9F041194DDFF8A3
:10A5800078802C78D8F800000134E4B22C70FBF706
:10A59000F9FE154B0022FCF799F8064620460F46B7
:10A5A000FBF700FF114B124C0022FCF78FF80B4613
:10A5B000024639463046FCF789F8FCF76FF92378F4
:10A5C0000C4EC0B28342307003D000F0F1F9337802
:10A5D00023702B78042B82BF00232B70C8F8003027
:10A5E000BDE8F08195D500200000144000004E40E9
:10A5F00096D5002021130020545B0020084B13B592
:10A6000000241C70074B4FF400421C7000230648C6
:10A61000CDE900232BF00AF8204602B010BD00BFA0
:10A620002113002095D50020A0140020014B18789C
:10A63000704700BF21130020F8B50F4D0F4E761B59
:10A6400007460C4605EBC105C6F3C706A64201DC6A
:10A6500000200CE02A683B689A4209D13C716B6883
:10A6600038461B68984718B1431E012BF0D9F8BD36
:10A6700001340835EAE700BF14980700C4980700C2
:10A680000D4B0E4AD21A70B4C2F3C7020024A24284
:10A6900003DC6FF0150070BC70471E680568AE42A1
:10A6A00006D15D688D4203D1E1B270BCFFF7C4BF33
:10A6B00001340833EBE700BF14980700C498070083
:10A6C00037B501A829F0E6FC194D019C00232B6049
:10A6D0001823584318380444019B9C4202D200209E
:10A6E00003B030BD20463DF057F8F0B120462DF0C4
:10A6F00075F9D0B920462DF0B2F9B0B920462DF049
:10A700009AF9014688B9204603F040FC20F0200366
:10A7100078330AD010F1860F07D00028E0DB2B68D1
:10A72000044A42F8234001332B60183CD4E700BFB1
:10A73000585B00209813002070B5084D084E2C6817
:10A74000013C002C02DA00232B6070BD56F8240077
:10A75000012103F01BFC013CF3E700BF585B002024
:10A760009813002000B58BB0064B074A2821684695
:10A770002BF034F805490122684604F079FB0BB050
:10A780005DF804FB3CDD060046DD060097D50020A1
:10A790002DE9F8434768044600254FF001087B681F
:10A7A000AB420DD8214922483DF05AFAA3681B68F4
:10A7B0000BB120469847398939BB0020BDE8F883A2
:10A7C0003A6802EBC50352F835001979DB88D0F8F6
:10A7D00010C0D0F80890DCF80060DA0754BF43F4EA
:10A7E000B01383F4D01323F4801208FA01FEDB07C0
:10A7F0004CBF46EA0E0626EA0E06CCF80060D9F8F1
:10A800000030984770B90135C9E740F2E7304FF49E
:10A810007A72002300EBC1300021FCF75FF82AF0C8
:10A8200089FCCAE76FF00400C8E700BF65A7020013
:10A830009019002008B5074B5A784AB901221A70BE
:10A840000548002200232AF079F904482BF05EFC29
:10A85000002008BD97D50020901900205C8B0600D1
:10A8600008B54FF4F012002302482AF09BF900EAE1
:10A87000E07008BD90190020F7B50C461646114946
:10A8800001AA1F462DF092F9B0B1019BA3B9012C8A
:10A8900015D10D4D224629463846B047002806DB23
:10A8A0002B780A486C7023B12BF030FC002003B0E9
:10A8B000F0BD2BF047FCF9E76FF00100F7E76FF010
:10A8C0001500F4E73CDD060097D500205C8B060000
:10A8D0001FB50023CDE90233044B8DF80C0001A80D
:10A8E00001932BF0FDFB05B05DF804FB049306001B
:10A8F0000268034B9A420CBF08300020704700BF2B
:10A900000493060084B030B589B00CAC84E80F0025
:10A91000002301930CAD084B00930FCD02AC0FC484
:10A9200095E8030084E8030068462BF0D9FB09B0E2
:10A93000BDE8304004B07047089306000268034B3E
:10A940009A420CBF08300020704700BF08930600F1
:10A9500084B030B58BB00EAC84E80F0000230193B7
:10A960000EAD084B00930FCD02AC0FC495E80F005D
:10A9700084E80F0068462BF0B3FB0BB0BDE8304015
:10A9800004B070470C9306000268034B9A420CBF58
:10A9900008300020704700BF0C9306000268034B8C
:10A9A0009A420CBF08300020704700BF1093060089
:10A9B0001FB5002302930390034B019301A82BF0D2
:10A9C0008FFB05B05DF804FB149306001FB5002350
:10A9D000CDE90233044B8DF80C0001A801932BF054
:10A9E0007FFB05B05DF804FB1893060082B038B514
:10A9F00004A981E80C000546114829F057FB0446DC
:10AA0000A0B16B68012B0CD0022B05D0A3B9BDE817
:10AA1000384002B02BF0E2BB2BF0E7FB00282046C9
:10AA2000F5DCBDE8384002B02BF0D1BB6FF004007C
:10AA3000BDE8384002B070476FF08500F8E700BF0E
:10AA40003CDD060082B010B502A981E80C00044686
:10AA50000B4829F02BFB78B16368022B04D000204F
:10AA6000BDE8104002B070472BF0BFFB0028CCBF00
:10AA7000002001206060F2E76FF00400F0E700BF03
:10AA80003CDD06000D4A52F82030013342F82030F8
:10AA90000B4A0123117883400B430A490978DBB242
:10AAA000137023EA01030849084A097850780B43D8
:10AAB000181A537018BF0120704700BF705B002048
:10AAC0009CD500209AD500209BD50020341300206F
:10AAD00010B5114A52F82030002B19DD013B42F825
:10AAE00020300E4A2BB913780121814023EA01035B
:10AAF00013700B480B4B047810780B4A5978127876
:10AB000020EA040010435870401A18BF012010BDFD
:10AB10006FF01500FBE700BF705B00209CD50020A4
:10AB20009AD50020341300209BD50020044A01232D
:10AB300012788340D8B213401B1A584258417047CC
:10AB40009CD5002010B5084B084A1870084B517866
:10AB50001C78084B1B7823EA040318435070401AF2
:10AB600018BF012010BD00BF9BD50020341300206A
:10AB70009AD500209CD50020074B00221A70074B65
:10AB8000074A1978074B50781B7823EA0103181AF3
:10AB9000537018BF012070479BD500209AD5002024
:10ABA000341300209CD50020A0F1E003072B03D82C
:10ABB0002030C0B2FFF766BF064B062213F8011F14
:10ABC00019B1013AFAD10020704718700028F8D066
:10ABD000F9E700BF36130020A0F1E003072B10B403
:10ABE00005D820305DF8044BC0B2FFF771BF0023D9
:10ABF000064A194612F8014F0133A04208BF1170EE
:10AC0000062BF7D100205DF8044B70473613002067
:10AC1000A0F1E003072B03D82030C0B2FFF786BFB6
:10AC2000064A002312F8011F884204D00133062B84
:10AC3000F8D1002070470120704700BF3613002074
:10AC4000024B00221A605A60704700BF3513002083
:10AC5000B0F5805F10B510D20949002301EB430223
:10AC6000B2F8014024B10133062BF7D1002010BD0A
:10AC7000A2F801000028F6D0F8E76FF08500F6E7AB
:10AC80002713002030B50023074C194604EB43027C
:10AC90000133B2F80150854204BF51709170062B08
:10ACA000F4D1002030BD00BF27130020024B00224A
:10ACB0001A605A609A60704728130020074A0023E0
:10ACC00002EB4301B1F80110814204D00133062B9D
:10ACD000F6D1002070470120704700BF27130020E5
:10ACE000042810D8094A52F82030013342F82030A5
:10ACF000074A0123117883400B43DBB21370054AE6
:10AD00000020537070476FF0150070475C5B0020A7
:10AD100099D5002022130020042814D80B4A52F899
:10AD20002030002B0FDD013B42F82030084A2BB9C0
:10AD300013780121814023EA01031370054B127837
:10AD40005A70002070476FF0150070475C5B002060
:10AD500099D5002022130020014B00221A60704771
:10AD60002313002000487047341300200048704728
:10AD70002713002000487047221300202DE9F041DE
:10AD80000B4E337883B10B4CDFF82C80002542F258
:10AD90000F772046414601353CF062FF0A2D44F80A
:10ADA000207C04F15804F4D100203070BDE8F0811B
:10ADB0003D130020202000209B64050030B5C269AF
:10ADC000037ED17D91B0044609B1032B39D0023BFB
:10ADD000012B517D07D8002933D1204611B0BDE8A1
:10ADE00030402BF031BB21B1937D13B920462BF0BD
:10ADF000CDFA0AAD1822002128463DF09CFA2379AD
:10AE00008DF838300023CDE907330993E3692268D0
:10AE10009B680793D4E90401E36808930A4B0B92FB
:10AE2000CDE90C01C3E902011A600123049310ABC0
:10AE300013E90F008DE80F0007A895E80C002BF030
:10AE4000AAF811B030BD00BF000000200B4A30B599
:10AE500000230446282000FB03F18D18515C41B902
:10AE60000FCC0FC50FCC0FC594E8030085E8030095
:10AE700030BD0133282BEED1FAE700BFC019002006
:10AE80002DE9F843027E0346002A6ED13B4D2A6825
:10AE900082426AD1D269547D24B119B9BDE8F84320
:10AEA0002BF0D2BA107D032828D8DFE800F0020E7C
:10AEB0001F600139042921D8DFE801F01E032005B5
:10AEC0001E00022119E0032117E00139042915D8D9
:10AED00001A050F821F000BFF9AE0200FDAE020063
:10AEE000C3AE0200C7AE0200F9AE02000429EAD0E8
:10AEF00001F0FB01012901D101211976197EA1B3CD
:10AF0000D06900280DDD5C6D611C0AD01C32002167
:10AF100052F8046FA64204D001318842F8D10122D0
:10AF20001A76002218462A60FFF748FF2C68E4B919
:10AF3000134EDFF85080A14616F8087CAFB12B689D
:10AF400006F8089C23B14FF4A47000212AF0F2F80F
:10AF5000012F01D0022F03D141463046FFF790FB6D
:10AF60000134282C06F12806E6D1BDE8F883022931
:10AF7000A7D0BFD904390129BED9BFE7905B002013
:10AF8000C8190020B094060082B02DE9F0412F4E80
:10AF900006A981E80C000024582202FB04F0851960
:10AFA00031588B424AD1203030443CF067FEEB6987
:10AFB0001968D5E904238A1843EBE17308998A429A
:10AFC000099A9341804603DA04212846FFF758FF87
:10AFD000582707FB046701212846FFF751FFFB694B
:10AFE000DB7D53B13B7E032B07D128462BF0F6F9CE
:10AFF000012328463B76FFF7E1FE28462BF0EEF9C9
:10B00000582303FB0463DB695A7D22B19B7D13B196
:10B0100028462BF0BBF918F1770F4FF058031DBFEE
:10B020005C4342F20F72331903FB046317BF3251C2
:10B03000012200221A7683F8502002E001340A2C03
:10B04000ABD1BDE8F041002002B0704700200020E5
:10B0500082B02DE9F047044608A9006881E80C0099
:10B060002AF043FF3B4B1D687DB9D4E901C23A4F3A
:10B070004FF0580E42F20F780EFB05F6F419B9594D
:10B08000414507D001350A2DF6D1BDE8F047002033
:10B0900002B07047D0F804809DF83010DDF824909D
:10B0A000DFF8B8E02171C4E902C2DDE90AC0C4E9F1
:10B0B00004C000214FF0FF3247F806902176626508
:10B0C000C4F81C80DEE902211C60D8F8103013EBB4
:10B0D000020A41EBE373D44570EB03030CDBDEF8AB
:10B0E000003099450CD1D8F80C309A1841EBE37137
:10B0F000944570EB010103DA05212046FFF7C0FEFD
:10B1000020460021FFF7BCFE582303FB0575D8F845
:10B11000004029690C443CF02FFF4FF47A72A0FBE9
:10B12000020302FB0131C30B43EA4143E11A21EA66
:10B13000E17140F2E7304FF47A72002300EBC13046
:10B140004914FBF7CBFB203602460B46B81929F011
:10B15000F5FC9AE7905B0020002000200000002012
:10B160002DE9F0418AB00446FFF7E8FB00286CD0D7
:10B170002046FFF7E3FB524D47680446002642F2A3
:10B180000F782B689F420CD043450AD0EB69DB7DDA
:10B190003BB12B7E032B04D102232B762846FFF7ED
:10B1A0000DFE01360A2E05F15805EAD1454D2868F5
:10B1B00008B900202CE0C369227A197E914204D09C
:10B1C000426D013204BF6268426501686268914263
:10B1D000EFD01968D0E904238A1843EBE173D4E96E
:10B1E0000461B2428B4116DB237ADBB10123214695
:10B1F00002A88DF800302AF0CFFF6846FFF726FE40
:10B20000217A2868C1F10301C9B2FFF739FE022093
:10B210000AB0BDE8F0810421FFF732FE2B68002B55
:10B22000C7D0E1E76068284A11780029C1D0012918
:10B2300005D15169884202D1117E0029D6D101334E
:10B24000282B02F12802EFD1B3E7204600F0A8FC3A
:10B250000028DDD0204600F0A3FC837A01469BB194
:10B260004368E03B072B02D80378072B0CD0174B21
:10B27000D1E90402D3E9025485429441BEBFC3E937
:10B2800002024FF000441C600E4B18680028BFD02B
:10B290004B68E03B072B8CD80B78072B89D1C3690F
:10B2A0005B7D13B1007E0028B2D002A802248DF885
:10B2B00000402BF0F7FA6846FFF7C8FDA7E700BF8C
:10B2C00000200020905B0020C0190020000000201A
:10B2D00082B02DE9F84308A90068109C81E80C00B1
:10B2E00017462AF002FE05690998236866682A381D
:10B2F000C200F3B1141A3C4405EBC40EDFF84890C9
:10B30000DEF80410314455F8346091FBF9F8334409
:10B310000E9E434436884FF4B47C09FB1811BCFBE5
:10B32000F6FC93FBFCF60CFB163345F83430CEF8F4
:10B330000410121A3A441C32002045F82260BDE87D
:10B34000F84302B0704700BF40420F0010B5094BF0
:10B3500000211A465C68844205D15C7F1CB95823E1
:10B3600003FB012010BD01310A2903F15803F1D17B
:10B370000020F7E7702300202DE9F0410B4E3378D1
:10B3800083B10B4CDFF82C8000254FF0FF372046AF
:10B39000414601353CF064FC0A2D44F8247C04F15C
:10B3A0005804F4D100203070BDE8F0813E13002035
:10B3B000982300209F66050082B02DE9F84308A974
:10B3C00081E80C000068DDE90A572AF08EFD099E2D
:10B3D000D0F804803046FFF7B9FF0446C0B9344BBB
:10B3E00001461A465868013031D158235943002389
:10B3F00054185350002000219DF830202272C4E9D7
:10B40000080101226660C4F818802275A283A37720
:10B410004FF0010904F1280684F8149030463CF0FE
:10B420002DFC773008BF84F81D902368D8F80420DD
:10B4300093423CBF013323602268D8F804309A421B
:10B440000FD12A463B4620462BF0F8F804E00131A4
:10B450000A2903F15803C5D1BDE8F843002002B022
:10B460007047A3691B685D1947F10007C4E90857D5
:10B470003CF082FD4FF47A72A0FB020302FB013123
:10B48000C30B43EA4143EC1A002CE5DD4FF40045C1
:10B4900040F2E73000214FF47A720023E4FB05010B
:10B4A000FBF71CFA02460B46304629F047FBD3E770
:10B4B00070230020F8B5FFF741FA044628B3037A59
:10B4C0001BB3164D0026012755F8243C5A1C1ED0EC
:10B4D000626893421BD028463CF0D0FB15F80A3C2A
:10B4E000773008BF05F80B7C8BB90D4D582303FB53
:10B4F00006552846D4E904232BF0A0F82B7D23B968
:10B50000D4E9042328462BF053F80020F8BD013677
:10B510000A2E05F15805D7D1F7E700BF9823002080
:10B520007023002030B593B0182200210CA83CF005
:10B5300002FF254D06AC00220CA90023284629F065
:10B540004FF8014600283DD1182220463CF0F3FE7A
:10B550000C9B07933CF010FD4FF47A72A0FB0203A2
:10B5600002FB01319DF834308DF82830C00B9DF876
:10B57000443040EA4140C90B13F00102CDE9080113
:10B5800018BF0122049208AB0FCB8DE80F000EA864
:10B5900094E80C002AF0FFFC119B012BCBD9C3F3DC
:10B5A0005E044FF4004540F2E73000214FF47A7218
:10B5B0000023E5FB0401FBF791F902460B46034823
:10B5C00029F0BCFA13B030BD501600201000002046
:10B5D00030B58BB001AC84E80E0042680492027C66
:10B5E0008DF8142094E8070006AD85E80B000F9A4B
:10B5F0009DF8383043EA42030993094800220023AA
:10B6000004A928F097FF002804DB06483CF034FB2F
:10B6100010B100200BB030BD0248FFF783FFF8E700
:10B62000501600201000002038B5154C012323705F
:10B6300014480022002329F03DF9002805DB0025ED
:10B64000237823B90F4829F00FF9002038BD257061
:10B6500000F05AF900F00C000C284FF0010007D15F
:10B6600000F058F90028EBD101202BF0D1F8E7E7E2
:10B6700000F050F90028E3D001202BF0CCF8DFE7F0
:10B680009DD500204017002070B5002506460560B6
:10B6900000F0ECFB044678B101F08EFB30B900F00D
:10B6A000D1FC012370603370304670BD064B1B78AF
:10B6B000012BF4D02846F5E701F07EFB0028EED000
:10B6C00023462046EEE700BF9ED5002008B5094B73
:10B6D0001B7823B1012B06D06FF0850008BDBDE8B3
:10B6E00008402BF02DBAFFF73DFBBDE808400130C4
:10B6F00000F0BABDE45C002008B5094B1B7823B10B
:10B70000012B06D06FF0850008BDBDE808402BF086
:10B710001FBAFFF72BFBBDE80840013000F0CABD9F
:10B72000E45C002037B508490848094D6C463CF0F8
:10B7300097FA2046FFF7A8FF94E8030085E8030086
:10B74000002003B030BD00BF55B70200E026002046
:10B75000E45C002002490348012203F089BB00BFDA
:10B760009ED500209EDE060082B00DF1080C0CE98B
:10B77000030019469DF8003010461BB1012B05D07F
:10B78000054A00E0054A02B02AF028B8019B044AA5
:10B7900002B02AF023B800BFBDDE0600B2DE06000C
:10B7A000B6DE0600034A034692E8030083E803007E
:10B7B00018467047E45C002008B5094B1B7823B19C
:10B7C000012B06D06FF0850008BDBDE808402BF0C6
:10B7D000C7B9FFF7CFFABDE80840013000F092BDCD
:10B7E000E45C002030B589B001AD0F4C2846FFF76E
:10B7F0004BFF94E80C0095E803002AF06BFF80B93A
:10B800002AF08FFF95E803000A2305AA84E80300C5
:10B81000FFF7AAFF94E8030003AB83E8030000F0FE
:10B8200023F809B030BD00BFE45C002070B50C46C1
:10B8300015460B4900221E462CF0B8F908B9002025
:10B8400070BD012C08D1074922463046A847002880
:10B85000F6DDFFF7C7FFF2E76FF01500F0E700BF76
:10B86000A8DE06009ED500207FB56B4683E8030066
:10B8700093E80300002206AB03E90300039202A849
:10B88000034A02922AF02CFC07B05DF804FB00BFCB
:10B890003895060006281FB530D830BB11B90020F6
:10B8A00004B010BD174B1A68012383401343154C95
:10B8B0009A422360F3D08DF800008DF801103CF01F
:10B8C0005BFB4FF47A72A0FB020302FB0131C00B59
:10B8D00040EA4140C90BCDE9020104AB13E90F0076
:10B8E00004B0BDE8104000F029B9064B1A680029E1
:10B8F000DAD10123834022EA0303D8E76FF0150071
:10B90000CEE700BF945D0020014B1868704700BF70
:10B91000945D0020014B19682AF064BF945D0020FB
:10B9200006289ABF024B53F820000020704700BF42
:10B9300044950600292937B504460D4602D9002052
:10B9400003B030BD0628FAD801A8FEF701FC002894
:10B95000F5DB8542F3DA019B53F82530292BEED82D
:10B960004FF4FC7202FB04F00C2202FB0300014BBB
:10B970001844E5E7609506002DE9F74FDDE90CABCB
:10B98000DFF84C9007460C4615461AB10F4B1B6862
:10B9900049F8213006265FFA86F859F82410404607
:10B9A0002AF020FF30B9013EF5D26FF0850003B0D8
:10B9B000BDE8F08FCDE900AB2B4622464146384624
:10B9C0002AF02CFF0028F2DDEDE700BF945D002097
:10B9D000EC5C00202DE9F04F2DED028B9FB0564E10
:10B9E000CDE90A129DED2A8B00EB4003804606EB61
:10B9F000830606254FF0000A00F12A090DF1680BB5
:10BA0000D6F890002AF071FA002800F0898000230F
:10BA10004046CDE91033FEF791FDCDE90C598DED8F
:10BA20000E8B0DF1300C0446BCE80F0012AF0FC7AF
:10BA30009CE8030087E80300CDE912598DED148BD3
:10BA40000DF1480EBEE80F000DF1600CACE80F00E0
:10BA500097E803008CE80300D6F890002AF045FA36
:10BA600000285DD083681F69002F59D006F190032C
:10BA700009930A9B06930B9BCDE904439BE80F00B7
:10BA80008DE80F00DDE918230998B847002847DB47
:10BA9000BAF1000F30D1E8B2FFF73CFF80F00107A8
:10BAA000FFB2CDE90C598DED0E8B0DF1300CBCE8D9
:10BAB0000F0012AC0FC49CE80300FFB284E803003F
:10BAC000CDE912598DED148B0DF1480EBEE80F0033
:10BAD0000DF1600CACE80F0094E803008CE8030063
